:10000000F8FF022099010000C907000081070000E5
:1000100081070000810700008107000081070000C0
:10002000810700008107000081070000C907000068
:10003000C907000081070000E91C0000ED1D000059
:10004000C9070000C9070000C9070000C907000070
:10005000C9070000C9070000C9070000C907000060
:10006000C9070000C9070000C9070000C907000050
:10007000C9070000C9070000C9070000C907000040
:10008000C9070000C9070000C9070000C907000030
:10009000C9070000C9070000C9070000C907000020
:1000A000C9070000C9070000C9070000C907000010
:1000B000C9070000C9070000C9070000151F00009C
:1000C000C907000041200000C90700006D210000A1
:1000D000C907000065220000C9070000C907000029
:1000E000C9070000C9070000C9070000C9070000D0
:1000F000C9070000C9070000C9070000C9070000C0
:10010000C9070000C9070000C9070000C9070000AF
:10011000C9070000F50B0000C9070000C90700006F
:10012000C9070000C9070000C9070000C90700008F
:10013000C9070000C9070000C9070000C90700007F
:10014000C9070000C90700005D230000C9070000BF
:1001500055240000C9070000C9070000C9070000B6
:10016000C9070000C9070000C9070000C90700004F
:10017000C9070000C9070000C9070000C90700003F
:10018000C9070000C9070000C9070000C90700002F
:10019000C9070000C9070000584B4CF2205210B5A7
:1001A0001A804DF628121A8000BF00BF00F010FB25
:1001B000534B4FF030621A60524A9A60524ADA60EA
:1001C000524B4FF470021A60514A136813F4807353
:1001D00004D150490B604FF4A85313604E4B1A786A
:1001E000110703D51A7842F008021A704B4B4C499C
:1001F0002A221A704B4A4C4B8B4204D252F8040FFD
:1002000043F8040BF8E7494B494900228B4202D2DC
:1002100043F8042BFAE74749474A002352F82300E2
:1002200041F823000133662BF8D1444B444A802126
:1002300003F8011B9342FBD1424B3E4A1A60424BEA
:100240008A221A70A3F5805324225A70A0221A70B1
:100250009A799207FCD59A79D406FCD43B4A9379D3
:1002600003F00C03082B394BF9D103221A714622F3
:100270005A719A799006FCD5344A9179334B4906E4
:10028000FBD5334A4FF08271116009215160202261
:100290001A709A7902F00C020C2AFAD12D4B2E4AD0
:1002A0001A602E4B2E4A1A6000225A60072243F829
:1002B000042C2C4AC3F80C2D62B600F02DFB154B14
:1002C0001B68DA0705D5284800F0C6FA274B284AEC
:1002D0001A60284B1B785B0609D5244C244B2268F6
:1002E0009A4204D1204800F0B7FA0023236002F0BC
:1002F000CDFD00F073FA00F0A1F9FEE70E200540F5
:1003000030800440823F04000100002B88ED00E0B3
:1003100010D0034014D0034002D0074000E0074053
:100320006011FF1FA4760000F806FF1F6011FF1F79
:10033000E815FF1F0002FF1F0000000000E400E0BE
:1003400056E400E008ED00E00050064000400640A2
:100350004480044004800440C010050014E000E024
:10036000BFD40100000020203AEAE85D1CE0034011
:10037000A5C3945A00F00740FFFFFFFFFFFFFFFFF8
:10038000FFFFFFFFFFFFFFFFFFFFFFFFFFFFFFFF7D
:10039000FFFFFFFFFFFFFFFFFFFFFFFFFFFFFFFF6D
:1003A000FFFFFFFFFFFFFFFFFFFFFFFFFFFFFFFF5D
:1003B000FFFFFFFFFFFFFFFFFFFFFFFFFFFFFFFF4D
:1003C000FFFFFFFFFFFFFFFFFFFFFFFFFFFFFFFF3D
:1003D000FFFFFFFFFFFFFFFFFFFFFFFFFFFFFFFF2D
:1003E000FFFFFFFFFFFFFFFFFFFFFFFFFFFFFFFF1D
:1003F000FFFFFFFFFFFFFFFFFFFFFFFFFFFFFFFF0D
:10040000FFFFFFFFFFFFFFFFFFFFFFFFDEF9FFFF23
:1004100010B5054C237833B9044B13B10448AFF33E
:1004200000800123237010BD6011FF1F0000000039
:10043000A0760000084B10B51BB108490848AFF37F
:1004400000800848036803B910BD074B002BFBD0A0
:10045000BDE81040184700BF000000006411FF1FF6
:10046000A07600006011FF1F0000000010B5054CD1
:100470002378DA0705D4642000F000FA2378DB073C
:10048000F9D510BD7812FF1F00B5182183B02E4892
:1004900001F054FA2D4800F0ABF80F212C4801F080
:1004A0004DFA2A4800F0A4F812212A4801F046FA31
:1004B000264800F09DF81621274801F03FFA23480E
:1004C00000F096F80F21254801F038FA1F4800F097
:1004D0008FF800F04FF8002331288DF80630ADF882
:1004E00004301FD032282BD0332802D003B05DF85F
:1004F00004FB16211A4801F021FA144800F078F89C
:100500000A2301221749114800F08AF801A800F0D7
:100510004FF802F0B1FC0221134801F00FFA03B0CA
:100520005DF804FB1148192101F008FA074800F0B2
:100530005FF802210C4801F001FA03B05DF804FBFA
:100540001D210B48F0E700BF94720000FC06FF1F5E
:10055000B0720000C0720000D4720000EC720000A3
:100560003C7300005473000018730000FC7200001C
:100570001C73000038B53024A4F1310504E00A2CC6
:100580000CD001F0B1F958B9022DF8D8E5B22246E5
:100590000549064800F044F8284638BD2546F6E7E8
:1005A00001F066F90446E7E778730000FC06FF1FD8
:1005B000F8B504460646351BEDB2012D12D801F000
:1005C00093F90028FBD001F053F9C7B20A2F09D0E4
:1005D000A7F13003092BF0D8384601F033FA06F8BA
:1005E000017BE8E70023A37001F08CF92046F8BDF9
:1005F00000B5064A036812885B6883B001A9ADF8AC
:1006000004200222984703B05DF804FB80730000C9
:1006100010B5036814465B689847204610BD00BFBC
:100620000EB400B582B003AA52F8041B019203F085
:100630002DFB02B05DF804EB03B0704708B5FFF77F
:1006400015FFFFF721FF01F07DFAFAE7844641EA42
:10065000000313F003036DD1403A41D351F8043B3A
:1006600040F8043B51F8043B40F8043B51F8043B8C
:1006700040F8043B51F8043B40F8043B51F8043B7C
:1006800040F8043B51F8043B40F8043B51F8043B6C
:1006900040F8043B51F8043B40F8043B51F8043B5C
:1006A00040F8043B51F8043B40F8043B51F8043B4C
:1006B00040F8043B51F8043B40F8043B51F8043B3C
:1006C00040F8043B51F8043B40F8043B51F8043B2C
:1006D00040F8043B51F8043B40F8043B403ABDD29B
:1006E000303211D351F8043B40F8043B51F8043B3D
:1006F00040F8043B51F8043B40F8043B51F8043BFC
:1007000040F8043B103AEDD20C3205D351F8043BCB
:1007100040F8043B043AF9D2043208D0D2071CBF97
:1007200011F8013B00F8013B01D30B8803806046C0
:10073000704700BF082A13D38B078DD010F0030336
:100740008AD0C3F10403D21ADB071CBF11F8013BA6
:1007500000F8013B80D331F8023B20F8023B7BE7F5
:10076000043AD9D3013A11F8013B00F8013BF9D220
:100770000B7803704B7843708B78837060467047BA
:1007800008B5104C08E0236859050DD423681A05F4
:100790000FD42368DB0411D423685803F3D500F089
:1007A00029FA23685905F1D501F0B4FB23681A052D
:1007B000EFD501F045FC2368DB04EDD501F0D6FC54
:1007C000EAE700BF3480044008B5FFF7D9FF00BF57
:1007D000014B10221A80704700200540704700BF6F
:1007E000094908B50B6830B16A461844A2F50052B1
:1007F000904202D20860184608BD02F041FB0C236B
:1008000003604FF0FF3008BDF806FF1FF0B44D1E27
:100810002E46002400E00134B0FBF2F302FB13008B
:10082000092800F130078ABF3730F8B2C0B206F8A5
:10083000010F1846002BEED10A1953704CB11078F5
:1008400015F8016F28700133E01A834202F801693C
:10085000F5DB0846F0BC704730B4054B054D064C3F
:10086000002210211A602A602060196030BC704795
:1008700014D0034004D0034000D003402DE9F843D6
:10088000054672B6204F214B214A1B683C6812680E
:1008900062B6520102D5322B88BF013495B3C3F53D
:1008A000EA331C4EDFF86490DFF86480BF334FF406
:1008B0007A72A6FB031302FB04F404EB931472B6E2
:1008C000D9F800103A68D8F800E062B6C1F5EA330A
:1008D000BF33A6FB03031EF0806FC4EB93134FF4EA
:1008E0007A7002D0322988BF013200FB0233B3F59F
:1008F0007A7F04D3013D05D004F57A74DFE701F077
:1009000021F9DCE7BDE8F8837C11FF1F18E000E067
:1009100004ED00E089888888F8B53E4B3E49DFF851
:1009200018C13E4E3E4ADFF814E13E4D3E4C3F4F6B
:100930004FF0006018604FF0805018604FF000508A
:1009400018604FF0804018604FF0004018600020A1
:10095000086028234EF6FF71CCF80010CEF8003066
:1009600033600EF5012E13602B60236005F5002522
:100970003B6004F50024B36207F50027936206F597
:10098000012602F501220EF1100E05F6E87504F6B7
:10099000E87407F57F67103220362B602360CEF8AD
:1009A00000303B6013603360214EBB6193610922CC
:1009B0003260A7F5002706F58056203F08363860DC
:1009C0003160BB60F36047F8042C06F5FD2607F59F
:1009D000FE2706F2FC76043730603960B360FB60B6
:1009E00046F8042C0836C7F8FC0F06F6FC761148CA
:1009F00031602B602360026001F00CFA1920FFF7D0
:100A00003DFF00F05FFE40F21310BDE8F840FFF735
:100A100035BF00BF04E100E00480034014800340C0
:100A20001C800340248003402C800340348003401A
:100A30000080034000900B40088003400C8003407E
:100A4000431E032B14D872B60A4951F8230068B12B
:100A500070B4094C058834F81320466841F82360C7
:100A6000521B24F8132062B670BC704762B6704700
:100A700000207047D811FF1FD015FF1F0138032831
:100A80000BD872B6074B53F8203043B100205B6897
:100A90000130002BFBD162B670470020704718462A
:100AA000F9E700BF2C12FF1F30B472B62B4A13783F
:100AB0001D0706D52A4B196A002936D0996A0029E4
:100AC00041D053781C0706D5254B196C00293ED020
:100AD000996C002939D09378190705D5204B196EE8
:100AE000002936D0996E89B1D3781B0707D51C4BE6
:100AF000D3F880207AB3D3F8882011213AB162B6B6
:100B0000184B00221A7030BC00F08CBE0D21154C21
:100B1000154D227843F8315003EBC1030830013AF8
:100B20005860227062B630BC704704220D4C0F4DE5
:100B3000217843F8325003EBC20308304A1E586054
:100B4000227062B6EFE70521E1E70921DFE708221D
:100B5000ECE70C22EAE71022E8E700BFAC730000E4
:100B60000000FF1F5512FF1FC80040008800400012
:100B7000431E032B1DD81B4A400140F0100030B427
:100B8000104472B6184CE25C032A1BD8DFE802F06E
:100B90000212151703220D88E25410F0080F14BF3B
:100BA000C823882343EA054308310360416062B6E5
:100BB00030BC704708300222EDE70522EBE7083031
:100BC0000422E8E7094A52F8230038B1084A52F8EB
:100BD0002300416042F8231062B6E9E742F823108F
:100BE000034AF7E70000FF1F6412FF1F2C12FF1FCC
:100BF0003C12FF1F2DE9F04FDFF80CB3DFF80CA318
:100C000087B044E0AB4F4FEA930807EBC809013EB9
:100C1000D9F8042003F00803F6B2A2F1080003F0AB
:100C2000FF04002B40F0028157F838301B0C99B2BA
:100C300022F8081C002B00F0F0809F4B22F8064C95
:100C400042F8044C53F82620002A00F0C5829B4D40
:100C500055F8263058609A4C45F8260034F816307E
:100C6000194424F8161000F0BDFD002800F0AD82F4
:100C7000944A954B19F0080F00F1080018BF13466D
:100C8000C9F8040047F8383008238BF800309BF887
:100C90000040E4B261071AD58C4B1B78A3B18C4994
:100CA0000A7802F0FF0322B1013BDBB20B7003B9FB
:100CB00000BE88490A7802F0FF032AB1013BDBB28B
:100CC0000B70002B00F0578204238BF8003004F0E7
:100CD000080303F0FF02002B00F0CC809AF80030EC
:100CE000DBB21E098ED19C08DFF8C89159F8342078
:100CF00009EBC401C2F38302013A49680C2A00F2ED
:100D00008880DFE802F07C7C868686868686478639
:100D1000868607000868704D4A68704F704E2860DC
:100D200081B240F28160674B6A604FF0010E002291
:100D3000814249F834303A60C9F81020C9F81820C7
:100D400086F800E05B4C00F2E380B1F5D06F80F0F4
:100D50004683B1F5817F00F0FC8200F28D8280290C
:100D600000F07783822940F0FA82A98801F07F01A0
:100D7000042900F2F4825B485B4C8900084422702D
:100D800062700278930740F1588484F800E04FF0D5
:100D9000020E42E3514F3A6832B3544B504E54491D
:100DA000188834780D784028864645F0020828BF18
:100DB0004FF0400E002C84F001043470CEEB0000A4
:100DC0000CBF8824C82409EBC80680B285F0010551
:100DD00044EA0E447260188049F8384072440D703D
:100DE000002800F045813A603B4B1A88B2F5A06FAD
:100DF0000FD100219A7859703E4B1A7009E0364A9B
:100E0000108842F22102904200F037812D4A49F8C1
:100E10003420394A0123137036E72A4A2A4B19F045
:100E2000080F18BF134647F838302DE700F0FAFCDA
:100E3000324A334952F82630002B00F0D1815868ED
:100E40008C5D42F8260003F10802C9F80420032C47
:100E500005D8DFE804F02C02292602228A551A88D8
:100E600019F0080F0CBF8823C82343EA024347F850
:100E7000383009E7E00700F18181210600F1F281B5
:100E8000A20706D51F4A204913780220DBB213704F
:100E90000870E30602D51C4B10221A7007B0BDE89B
:100EA000F08F04228A55DAE705228A55D7E7032214
:100EB0008A55D4E70000FF1FD811FF1F8411FF1FC0
:100EC000D015FF1FC8004000880040006012FF1FBF
:100ED000E911FF1F6812FF1F4C12FF1F8011FF1F37
:100EE000E811FF1FC02007405812FF1F9411FF1F79
:100EF0005412FF1F98200740942007402C12FF1F18
:100F00006412FF1F88200740802007409020074080
:100F100042F22100814200F02A8100F2D880B1F52E
:100F2000086F00F07682B1F5106F40F01882226AE7
:100F3000B349A8780870120600F13A83D9F828203E
:100F4000B049130600F10C83D9F83020AD491506DD
:100F500000F10183D9F83820AA49140600F1F6827D
:100F6000D9F84020A749100600F14A83D9F8482053
:100F7000A449120600F13F83D9F85020A149130675
:100F800000F13483D9F858209E49150600F12983D1
:100F9000D9F860209B49140600F11E83D9F8682017
:100FA0009849100600F11383D9F87020954912066C
:100FB00000F10883D9F878209249130600F1FD82E8
:100FC000D9F880208F49150600F13183D9F888209F
:100FD0008C49140600F12583D9F890208949100620
:100FE00000F11983D9F898208649120600F10D8383
:100FF0008548864A864901908648874D874C0497E4
:1010000000230596029580460F4616461D4603941A
:10101000306828B1446800F005FC2046002CF9D166
:1010200000233360029B38681A46002342F82530BB
:1010300028B1446800F0F6FB2046002CF9D10022CC
:101040003A60019A98F800301146002241F8042BCA
:10105000039A0191023B4FF0000122F81510032B77
:1010600000F22B81DFE813F07001250170012501EA
:10107000BEF1400F18BF0022B5E6694A0D784878E6
:10108000157050708D78C8789570D07010680D7993
:10109000157186284D7989795571917100F09B8180
:1010A0006049614E0A78307882F00105002842F0EC
:1010B00002020D700CBF8821C82149F8321009EBDB
:1010C000C20280F001000021307051609EE642F2C1
:1010D0002120814240F0CB81544B554C5549A87892
:1010E0001D682560CDF804E008700020029080465D
:1010F000844604464B490D7845F0020E09EBCE03B9
:101100000393019B002B039B5C600CBF8824C824C5
:1011100044EA080385F0010449F83E3032700C704F
:10112000DFF8E0E0404BDFF8FC80002840F01E8153
:10113000BCF1400F1BD144F0020C09EBCC03029C24
:10114000DFF8C0E05C60002A40F02681020442F033
:1011500088029DF804304EF83C20044433700D7032
:101160002346402803D10020334A3B601080334A95
:10117000012313704DE600F0C1FCA5E5214B2F487B
:1011800028491A614FF0020E80F800E02C4F0A70D7
:101190002C49196099602C4E2C4D2D4C9A610D21D3
:1011A0003970FF213170DFF8B8E029702270294DC5
:1011B000294A8EF800109F27012406F8047C5D6000
:1011C0000470DA6007B0BDE8F08F244A47F83800B1
:1011D00013780133137057E543F826000E4D3AE5B6
:1011E0008B5D032B00F2F08001A252F823F000BFC8
:1011F000890C0000890C0000AD120000A71200004D
:101200006012FF1F0000FF1F3C12FF1FD811FF1FBD
:101210002C12FF1F6412FF1F8411FF1FD015FF1F28
:10122000D815FF1F5412FF1FE811FF1F7C11FF1F6D
:10123000E015FF1F7812FF1F9411FF1F9420074035
:10124000C0200740880040008820074080200740D9
:10125000982007409811FF1FEC11FF1F5512FF1F28
:101260008C200740C149C24B80220D2008701A70A3
:10127000A2077FF50EAE05E640F20232914240F041
:10128000EE80A98801F07F01042968D86A88002AC5
:1012900065D1B648CDF804E089000844017841F0F2
:1012A0000201017021E701238B55EDE400238B55EA
:1012B000EAE44FF0010388F800300135042D06F10F
:1012C000040607F1040708F101087FF4A1AEA94C58
:1012D000A94B2278A94D049F059E002129701A7000
:1012E000130700F105816278A549DFF8A0820A7032
:1012F00010074FF00001C9F83010C9F8381000F19C
:10130000E080A049A2780A700021C9F85010C9F8FD
:1013100058101107DFF8748200F10181E2789A49D0
:101320009A4C0A7000211207C9F87010C9F8781099
:1013300000F1B08033780193002183F00102C9F8F5
:101340009010C9F89810D0E64FF0000388F80030EC
:10135000B3E7A98801F07F01042940F28D80834A18
:101360000F2313708A4A0123137052E540287FF639
:10137000E2AE44F002040EEBC401029E4E60BAB12C
:101380009DF80410834A19703346403888F800509D
:1013900040334EF83420E7E69DF804303370020401
:1013A000029B0D7042F0C80203444EF83C20D8E680
:1013B0009DF804101970029B774A88F80050403855
:1013C00040334EF83420CFE619F0080F0CBF02234B
:1013D00003238B5558E4714A0F21117060E6704A5F
:1013E0005468002CBBD06888B5F804E003E00C32E8
:1013F0005468002CB3D013888342F8D153887345C6
:10140000F5D1000A03280CBF94F800E0B2F808E018
:1014100003E0644A644C12782270E888704580F0DA
:101420003F8162490D784028844645F0020E28BF6E
:101430004FF0400C04EB0C0309EBCE0202930123A6
:101440005460CCEB00004FEA0C4800220193C82402
:101450005EE6554C4FF0020E22706270DDE7B1F58A
:10146000A06F7FF47CAF0123002201933DE642F29E
:1014700021329142F7D072E76A88002A7FF46FAF79
:101480003A48CDF804E089000844017821F00201CF
:1014900001702AE600F0A6F9002800F0EF8008307D
:1014A0003D4AC4F88400C4F8802000F09BF900286D
:1014B00000F0DE800830374AC9F88C00C9F888206F
:1014C00038E700F08FF9002800F0C0800830324A79
:1014D000C8F84400C8F8402000F084F9002800F063
:1014E000AF8008302B4AC9F84C00C9F8482008E7FB
:1014F00000F078F9002800F0CD800830264AC9F8BD
:101500002400C9F8202000F06DF9002800F0BC800C
:101510000830204AC9F82C00C9F82820E3E600F07A
:1015200061F9002800F09E8008301B4AC8F864006A
:10153000C8F8602000F056F9002800F08D800830CF
:10154000144AC9F86C00C9F86820E7E6C86B083887
:1015500000F068F904E5486B083800F063F9F9E435
:10156000C86A083800F05EF9EEE400BFC02007400A
:1015700080200740AC730000C42007405512FF1FB5
:10158000C8200740CC200740D02007400000FF1FA4
:1015900094200740C800400088004000E911FF1F68
:1015A000B07300006012FF1F5812FF1F5412FF1F7C
:1015B000606A083800F036F9C0E4C86F083800F0F7
:1015C00031F9FDE4486F083800F02CF9F2E4C86EF8
:1015D000083800F027F9E7E4486E083800F022F9EF
:1015E000DCE4C86D083800F01DF9D1E4486D083816
:1015F00000F018F9C6E4C86C083800F013F9BBE431
:10160000486C083800F00EF9B0E4D1F89C000838B6
:1016100000F008F9ECE4D1F89400083800F002F981
:10162000E0E4D1F88C00083800F0FCF8D4E4D1F8FC
:101630008400083800F0F6F8C8E44FF0020EECE63B
:101640002A78C9F8480001322A705AE62A78C8F880
:10165000400001322A703FE72A78C9F86800013259
:101660002A705BE62A78C8F8600001322A7061E7C8
:101670002A78C9F8880001322A705BE62A78C4F813
:10168000800001322A7010E72A78C9F82800013258
:101690002A7028E62A78C9F8200001322A7032E739
:1016A000BEF1400FF44628BF4FF0400C04EB0C0392
:1016B00002930123CCEB0E004FEA0C480022019369
:1016C00018E500BF2DE9F04100F030FF2F4C304B02
:1016D0003048DFF8D880304F304D314EDFF8D0C081
:1016E000DFF8D0E000221A605A609A60DA601A616E
:1016F0005A619A61DA611A625A629A62DA621A630C
:101700005A639A63DA631A645A649A64DA641A65EB
:101710005A659A65DA651A665A669A66DA661A67CB
:101720005A679A67DA67C3F880202168C3F8842073
:1017300041F480212160016841F040710160C3F3F0
:10174000072188F8001004F52834C3F307411B0E65
:101750003970CC342B7000F12040FF238CF800301E
:10176000104D8EF8003000F6041033700E4901233E
:1017700008F8083C702622704FF40014102207F875
:101780002C3C2E7004600A70BDE8F0813480044067
:101790000000FF1F00D80040B0200740B4200740E1
:1017A0001020074035E400E0082107409C20074056
:1017B000802007408820074000F0A4B800F07CB8E3
:1017C00000F056B800F090B800F06CB900F046B9DF
:1017D0000846114600F0B2B8084600F033B900BF21
:1017E000704700BF72B60D480268B2FA82F30B2B45
:1017F00010DC4FF00041D94022EA0102026062B6DB
:10180000074803EBC303DB00C2180021C150104698
:101810005160704762B60020704700BF0C07FF1F81
:101820009803FF1F0D4B0E4AC31AA2FB03231B098B
:101830000B2B0CD80B4A127852B972B60A484FF0EB
:101840000041026821FA03F31A43026062B670474E
:10185000064A1278002AF0D0FFF726B99803FF1F36
:10186000398EE3385512FF1F0C07FF1F6012FF1F50
:1018700038B50F4D286878B143880288C118013304
:1018800093420C7A02D24380204638BDFFF7CAFF4C
:10189000002320462B6038BD064B1B782BB103205C
:1018A000FFF7CEF828600028E6D14FF0FF3038BDB2
:1018B0007412FF1F6012FF1F10B5094C206818B189
:1018C00043881844007A10BD064B1B782BB10320C7
:1018D000FFF7B6F820600028F2D14FF0FF3010BDBE
:1018E0007412FF1F6012FF1F044B054A1B6890888B
:1018F0001BB11A885B88D31A184470477412FF1FF3
:10190000D015FF1F0B4B1B789BB110B50A4C2068FC
:1019100048B1FFF787FF002303202360FFF790F80B
:1019200030B1FFF77FFF0320FFF78AF80028F8D1D6
:1019300010BD70476012FF1F7412FF1F2DE9F04F9A
:10194000DFF8F89083B0012289F80020019169B393
:10195000DFF8EC80364F019E8346D8F80000B0B324
:10196000344D4488C4F14001B14228BF314604EBF4
:10197000010E00221FFA8EFE2A70761AA0F802E0ED
:1019800000F1080251B1013C224459441BF8014BBB
:1019900002F8014F8B45F9D1B0F802E0BEF13F0FDC
:1019A0000BD8254A05211170002ED6D101980023AD
:1019B00089F8003003B0BDE8F08F40220280014674
:1019C0000420FFF7D5F80022C8F80020E9E73A78AC
:1019D0002AB3184D4DF2E9044FF0010A07E0013C2B
:1019E00016D02A78A2B900F0ADF83A78BAB104203E
:1019F000FFF744F80728F2D889F800A0FFF7F2FEB5
:101A0000C8F800000028ACD10C4B013C1870E8D19C
:101A100001234FF0FF302B7003B0BDE8F08F00239F
:101A20004FF0FF3089F8003003B0BDE8F08F00BF01
:101A30006012FF1F7012FF1F6812FF1F6912FF1F45
:101A40006C12FF1F00B583B002AB012103F8010D3A
:101A50001846FFF773FF03B05DF804FB38B50E4D71
:101A60000E4C28680123237028B14088002323707E
:101A7000C0F1400038BD0A4B1B7813B9002020701C
:101A800038BD0420FEF7FAFF0728F7D8FFF7AAFEB3
:101A900028600028E9D1F1E76C12FF1F6912FF1FCF
:101AA0006012FF1FF8B5114B1B788BB1104E114D12
:101AB000346801272F7064B10F4A638800271770BC
:101AC000214623800420FFF753F8376000232B7052
:101AD000F8BDFFF787FE084B28B1014604201C70B3
:101AE000FFF746F8F2E71F70F0E700BF6012FF1F34
:101AF0006C12FF1F6912FF1F6812FF1F38B50E4BD3
:101B00001B7873B90D4C216861B103F0FF054B8858
:101B10000B800420FFF72CF8256038BD084B01220C
:101B20001A7038BDFFF75EFE0028F7D00146BDE809
:101B300038400420FFF71CB86912FF1F6C12FF1F0A
:101B40006812FF1F38B52C4C237803B138BD012330
:101B50002370FFF7C9FE002842D100F0CBF900281E
:101B60003BD100F05DFA002834D100F0EFFA70BBF1
:101B700000F068FB40BB00F0E1FB10BB00F05AFC3A
:101B8000E0B900232370EFF30583002BDED1EFF3E0
:101B9000108172B6194B186828B3194C227812BB01
:101BA00045691D60012323700DB3AA6101B962B6B6
:101BB00000254577836898472570C7E700F028F926
:101BC000DFE700F023F9D9E700F01EF9D3E700F0D2
:101BD00019F9CDE700F014F9C7E700F00FF9C0E7F5
:101BE000FFF7FEFDB9E70029B0D162B638BD054B5D
:101BF0001D600029DCD1DAE77912FF1F8C12FF1F6C
:101C00009012FF1F8812FF1F10B4EFF3108272B6FC
:101C1000437F33B9017F012908D0032910D0012364
:101C2000437702B962B65DF8044B7047114C2168E6
:101C3000A1B1114943610B68836108605861EEE707
:101C40000E4C216881B10E4943610B6883610860C5
:101C500058610C4B4FF080511960E0E7064B416131
:101C6000816120601860DAE7054B41618161206085
:101C70001860EEE78C12FF1F8812FF1F7C12FF1FF7
:101C80008012FF1F04ED00E010B4047F4160022CBD
:101C9000C26003D05DF8044BFFF7B6BF83685DF800
:101CA000044B184770B5EFF3108272B60C4C2068E5
:101CB00080B10C4E00254369236073B19D6102B968
:101CC00062B6457783689847EFF3108272B6206852
:101CD0000028F0D102B962B670BD3360EFE700BFF3
:101CE0007C12FF1F8012FF1FFFF7DCBF184A30B4C1
:101CF0001468002C27D0036821688B420ED2CB1ABF
:101D000000218460C1602360E060106002230375DD
:101D100030BC704711688B42144608D3A2685B1A26
:101D20000360002AF6D18260C460A060EEE7D2684A
:101D3000C2608460E060C568CB1A0222A86023609C
:101D4000027530BC70478460C4601060DEE700BF7D
:101D50008412FF1FF8B5224E34682CB32368002B81
:101D60003AD1204F1D4604E03468ECB12368002BC3
:101D700032D1A36803B1DD60206933600368257543
:101D80001B68BB4221D1037F4560022BC46020D079
:101D9000FFF73AFF6368002BE6D023602046FFF789
:101DA000A5FF3468002CE1D1EFF3108372B60E4A20
:101DB00000211068116003B962B628B18468FFF78A
:101DC00095FF20460028F9D1F8BD2246002198470A
:101DD000E0E783689847DDE7013B2360E4E700BF65
:101DE0008412FF1F891C00009412FF1F024A13680F
:101DF00001331360FFF7AEBF7C11FF1F704700BFB8
:101E0000704700BF704700BF704700BF704700BFFA
:101E1000704700BF30B42948294A2A4B2A4D602414
:101E2000E121047011701B78284C082B30D00A2B4C
:101E30002748284937D00C2B0CBF35225D221223AE
:101E40002A60236002600B60234B24491B78244ADC
:101E5000BBB101230B601360224B23491B78234A3B
:101E6000012B26D9042B0FD9082B1ED9102B94BF78
:101E7000862387230B6013601D4B01221A7030BC30
:101E800070470B601360E7E784230B601360F3E790
:101E900000F58E200F490830212213232A60236089
:101EA00002600B60D0E73922F7E785230B601360EF
:101EB000E2E780230B601360DEE700BF00400740CD
:101EC000014007401007FF1F08B003400CB003405B
:101ED00008B00B400CB00B409912FF1F20B003401C
:101EE00020B00B401107FF1F24B0034024B00B406B
:101EF0009812FF1F054A064B10781B78C0B2DBB260
:101F0000984238BF4030C01A704700BFA012FF1F70
:101F1000A112FF1FF0B4384B1A7912F0300F2CD0F9
:101F200072B6997D01F0FF0200293DD062B6334FB1
:101F3000334938780D78334E1C46C0B2EDB2431C9D
:101F4000402BE17928BF0023AB4202F1FF32C9B236
:101F50001CBFF154184612F0FF02F0D12A4B1B6847
:101F6000C2B23A704BB1A84236BFC5F14005401B22
:101F700040192728C4BF01221A701F49CA78D2B25B
:101F8000150616D452060DD51B4B1B795B0609D5D9
:101F90001E4B1F491B6800220A7003B11A70164BB2
:101FA0003C22DA70F0BC70474022D9795A7462B68C
:101FB000E3E70B791C06E5D5164B174E1C783378F2
:101FC000E4B2DBB29C420ED0144D01E0A3420AD031
:101FD0000133402B28BF00230879E85CC0B2C871E8
:101FE000087D0728F2D9DBB2034933700B79180654
:101FF00044BF7C23CB70C5E700A00640A012FF1FA2
:10200000A112FF1FE412FF1F9C12FF1F2813FF1FC6
:102010002413FF1F2C13FF1F2513FF1FA412FF1FE4
:10202000054A064B10781B78C0B2DBB2984238BF25
:102030004030C01A704700BFA013FF1F3513FF1FA9
:10204000F0B4384B1A7912F0300F2CD072B6997D5B
:1020500001F0FF0200293DD062B6334F3349387892
:102060000D78334E1C46C0B2EDB2431C402BE179D3
:1020700028BF0023AB4202F1FF32C9B21CBFF154AA
:10208000184612F0FF02F0D12A4B1B68C2B23A7018
:102090004BB1A84236BFC5F14005401B4019272867
:1020A000C4BF01221A701F49CA78D2B2150616D4CD
:1020B00052060DD51B4B1B795B0609D51E4B1F49DC
:1020C0001B6800220A7003B11A70164B3C22DA70AA
:1020D000F0BC70474022D9795A7462B6E3E70B79B5
:1020E0001C06E5D5164B174E1C783378E4B2DBB2EC
:1020F0009C420ED0144D01E0A3420AD00133282B9C
:1021000028BF00230879E85CC0B2C871087D0728A1
:10211000F2D9DBB2034933700B79180644BF7C2334
:10212000CB70C5E700B00640A013FF1F3513FF1F9B
:102130006013FF1F3013FF1FA413FF1F3413FF1F73
:10214000A813FF1FA113FF1F3813FF1F054A064BDB
:1021500010781B78C0B2DBB2984238BF4030C01A4A
:10216000704700BFB013FF1FB113FF1F30B42B4BDC
:102170001A7994061FD52A48DA7903782949013358
:102180003F2B0978C8BF00238B42D2B203D0264C24
:10219000D9B2E2540170254A116861B1244A12781B
:1021A000D2B2934236BFC2F140029B1A9B18272B32
:1021B000C4BF01230B70194AD378DBB2180611D4BF
:1021C0005A060DD5154B1B795B0609D5194B1A49D3
:1021D0001B6800220A7003B11A70104B2C22DA70AF
:1021E00030BC704711790906EAD5144910480C78BB
:1021F0000178C9B28C420DD04A1C272A84BF002125
:102200000A460F4D054C98BFD1B2AA5CD2B2E2711A
:102210000170D5E76C21D170D2E700BF00C0064045
:10222000B013FF1FB113FF1FDC13FF1FAC13FF1F01
:102230001D14FF1F2014FF1F1C14FF1F2414FF1F59
:10224000B413FF1F054A064B10781B78C0B2DBB2EF
:10225000984238BF4030C01A704700BF2C14FF1F8F
:102260002D14FF1F30B42B4B1A7994061FD52A4822
:10227000DA790378294901333F2B0978C8BF002355
:102280008B42D2B203D0264CD9B2E2540170254A17
:10229000116861B1244A1278D2B2934236BFC2F1BA
:1022A00040029B1A9B18272BC4BF01230B70194AAD
:1022B000D378DBB2180611D45A060DD5154B1B790D
:1022C0005B0609D5194B1A491B6800220A7003B135
:1022D0001A70104B2C22DA7030BC70471179090645
:1022E000EAD5144910480C780178C9B28C420DD057
:1022F0004A1C272A84BF00210A460F4D054C98BF6F
:10230000D1B2AA5CD2B2E2710170D5E76C21D17072
:10231000D2E700BF00D006402C14FF1F2D14FF1F72
:102320005814FF1F2814FF1F9914FF1F9C14FF1F30
:102330009814FF1FA014FF1F3014FF1F054A064BFF
:1023400010781B78C0B2DBB2984238BF4030C01A58
:10235000704700BFA814FF1FA914FF1F30B42B4BF8
:102360001A7994061FD52A48DA7903782949013366
:102370003F2B0978C8BF00238B42D2B203D0264C32
:10238000D9B2E2540170254A116861B1244A127829
:10239000D2B2934236BFC2F140029B1A9B18272B40
:1023A000C4BF01230B70194AD378DBB2180611D4CD
:1023B0005A060DD5154B1B795B0609D5194B1A49E1
:1023C0001B6800220A7003B11A70104B2C22DA70BD
:1023D00030BC704711790906EAD5144910480C78C9
:1023E0000178C9B28C420DD04A1C272A84BF002133
:1023F0000A460F4D054C98BFD1B2AA5CD2B2E27129
:102400000170D5E76C21D170D2E700BF00A00E406B
:10241000A814FF1FA914FF1FD414FF1FA414FF1F2B
:102420001515FF1F1815FF1F1415FF1F1C15FF1F83
:10243000AC14FF1F054A064B10781B78C0B2DBB204
:10244000984238BF4030C01A704700BF2415FF1FA4
:102450002515FF1F30B42B4B1A7994061FD52A4837
:10246000DA790378294901333F2B0978C8BF002363
:102470008B42D2B203D0264CD9B2E2540170254A25
:10248000116861B1244A1278D2B2934236BFC2F1C8
:1024900040029B1A9B18272BC4BF01230B70194ABB
:1024A000D378DBB2180611D45A060DD5154B1B791B
:1024B0005B0609D5194B1A491B6800220A7003B143
:1024C0001A70104B2C22DA7030BC70471179090653
:1024D000EAD5144910480C780178C9B28C420DD065
:1024E0004A1C272A84BF00210A460F4D054C98BF7D
:1024F000D1B2AA5CD2B2E2710170D5E76C21D17081
:10250000D2E700BF00B00E402415FF1F2515FF1FA6
:102510005015FF1F2015FF1F9115FF1F9415FF1F5A
:102520009015FF1F9815FF1F2815FF1F72B6184A38
:10253000184B19491160702280211A701A461970BF
:1025400013781B06FCD510B5144B84B0186862B61E
:10255000134B144C984298BF00EB800001A998BF20
:1025600040000A22FEF752F901A92046002311F883
:10257000012B01333AB10A2B20F8022FF7D1162391
:10258000237004B010BD5B00DBB2237004B010BD3B
:102590000400024000000240000007410C0002401D
:1025A0007F969800A007FF1F81F0004102E000BF66
:1025B00083F0004330B54FEA41044FEA430594EA03
:1025C000050F08BF90EA020F1FBF54EA000C55EA3E
:1025D000020C7FEA645C7FEA655C00F0E2804FEA0F
:1025E0005454D4EB5555B8BF6D420CDD2C4480EAF1
:1025F000020281EA030382EA000083EA010180EA21
:10260000020281EA0303362D88BF30BD11F0004F6E
:102610004FEA01314FF4801C4CEA113102D04042A4
:1026200061EB410113F0004F4FEA03334CEA1333DF
:1026300002D0524263EB430394EA050F00F0A780F7
:10264000A4F10104D5F1200E0DDB02FA0EFC22FAF2
:1026500005F2801841F1000103FA0EF2801843FAE6
:1026600005F359410EE0A5F120050EF1200E012AD7
:1026700003FA0EFC28BF4CF0020C43FA05F3C01815
:1026800051EBE37101F0004507D54FF0000EDCF18E
:10269000000C7EEB00006EEB0101B1F5801F1BD337
:1026A000B1F5001F0CD349085FEA30004FEA3C0C3B
:1026B00004F101044FEA445212F5800F80F09A8031
:1026C000BCF1004F08BF5FEA500C50F1000041EB35
:1026D000045141EA050130BD5FEA4C0C404141EB39
:1026E000010111F4801FA4F10104E9D191F0000F60
:1026F00004BF01460020B1FA81F308BF2033A3F1E3
:102700000B03B3F120020CDA0C3208DD02F1140CD9
:10271000C2F10C0201FA0CF021FA02F10CE002F114
:102720001402D8BFC2F1200C01FA02F120FA0CFC0D
:10273000DCBF41EA0C019040E41AA2BF01EB045156
:10274000294330BD6FEA04041F3C1CDA0C340EDC54
:1027500004F11404C4F1200220FA04F001FA02F397
:1027600040EA030021FA04F345EA030130BDC4F155
:102770000C04C4F1200220FA02F001FA04F340EA4A
:102780000300294630BD21FA04F0294630BD94F0FB
:10279000000F83F4801306BF81F480110134013DE2
:1027A0004EE77FEA645C18BF7FEA655C29D094EA53
:1027B000050F08BF90EA020F05D054EA000C04BFD1
:1027C0001946104630BD91EA030F1EBF00210020BC
:1027D00030BD5FEA545C05D14000494128BF41F05B
:1027E000004130BD14F580043CBF01F5801130BDBF
:1027F00001F0004545F0FE4141F470014FF000004A
:1028000030BD7FEA645C1ABF194610467FEA655CFA
:102810001CBF0B46024650EA013406BF52EA03359C
:1028200091EA030F41F4002130BD00BF90F0000F8A
:1028300004BF0021704730B54FF4806404F13204C6
:102840004FF000054FF0000150E700BF90F0000F7F
:1028500004BF0021704730B54FF4806404F13204A6
:1028600010F0004548BF40424FF000013EE700BF76
:1028700042004FEAE2014FEA31014FEA02701FBF06
:1028800012F07F4393F07F4F81F06051704792F0D8
:10289000000F14BF93F07F4F704730B54FF4607452
:1028A00001F0004521F0004120E700BF50EA01029D
:1028B00008BF704730B54FF000050AE050EA01024A
:1028C00008BF704730B511F0004502D5404261EBBA
:1028D00041014FF4806404F132045FEA915C3FF4FB
:1028E000DCAE4FF003025FEADC0C18BF03325FEA94
:1028F000DC0C18BF033202EBDC02C2F1200300FA49
:1029000003FC20FA02F001FA03FE40EA0E0021FA6D
:1029100002F11444C1E600BF70B54FF0FF0C4CF457
:10292000E06C1CEA11541DBF1CEA135594EA0C0F0D
:1029300095EA0C0F00F0DEF82C4481EA030621EA48
:102940004C5123EA4C5350EA013518BF52EA033583
:1029500041F4801143F4801338D0A0FB02CE4FF035
:102960000005E1FB02E506F00042E0FB03E54FF065
:102970000006E1FB03569CF0000F18BF4EF0010E5D
:10298000A4F1FF04B6F5007F64F5407404D25FEA59
:102990004E0E6D4146EB060642EAC62141EA55510C
:1029A0004FEAC52040EA5E504FEACE2EB4F1FD0C4E
:1029B00088BFBCF5E06F1ED8BEF1004F08BF5FEACC
:1029C000500E50F1000041EB045170BD06F000467E
:1029D00046EA010140EA020081EA0301B4EB5C042B
:1029E000C2BFD4EB0C0541EA045170BD41F4801123
:1029F0004FF0000E013C00F3AB8014F1360FDEBF48
:102A0000002001F0004170BDC4F10004203C35DA23
:102A10000C341BDC04F11404C4F1200500FA05F3A6
:102A200020FA04F001FA05F240EA020001F0004247
:102A300021F0004110EBD37021FA04F642EB0601BD
:102A40005EEA430E08BF20EAD37070BDC4F10C04E7
:102A5000C4F1200500FA04F320FA05F001FA04F2AB
:102A600040EA020001F0004110EBD37041F1000197
:102A70005EEA430E08BF20EAD37070BDC4F12005A2
:102A800000FA05F24EEA020E20FA04F301FA05F20A
:102A900043EA020321FA04F001F0004121FA04F2B2
:102AA00020EA020000EBD3705EEA430E08BF20EA82
:102AB000D37070BD94F0000F0FD101F000464000BC
:102AC00041EB010111F4801F08BF013CF7D041EA3E
:102AD000060195F0000F18BF704703F00046520042
:102AE00043EB030313F4801F08BF013DF7D043EA13
:102AF0000603704794EA0C0F0CEA135518BF95EAC9
:102B00000C0F0CD050EA410618BF52EA4306D1D14F
:102B100081EA030101F000414FF0000070BD50EA6E
:102B2000410606BF1046194652EA430619D094EAF8
:102B30000C0F02D150EA013613D195EA0C0F05D1E2
:102B400052EA03361CBF104619460AD181EA030136
:102B500001F0004141F0FE4141F470014FF00000EE
:102B600070BD41F0FE4141F4780170BD70B54FF089
:102B7000FF0C4CF4E06C1CEA11541DBF1CEA135509
:102B800094EA0C0F95EA0C0F00F0A7F8A4EB0504EB
:102B900081EA030E52EA03354FEA013100F08880E2
:102BA0004FEA03334FF0805545EA131343EA1263AB
:102BB0004FEA022245EA111545EA10654FEA002660
:102BC0000EF000419D4208BF964244F1FD0404F519
:102BD000407402D25B084FEA3202B61A65EB030575
:102BE0005B084FEA32024FF480104FF4002CB6EB32
:102BF000020E75EB030E22BFB61A754640EA0C00B2
:102C00005B084FEA3202B6EB020E75EB030E22BFF1
:102C1000B61A754640EA5C005B084FEA3202B6EB32
:102C2000020E75EB030E22BFB61A754640EA9C00F1
:102C30005B084FEA3202B6EB020E75EB030E22BFC1
:102C4000B61A754640EADC0055EA060E18D04FEA7F
:102C5000051545EA16754FEA06164FEAC30343EA1F
:102C600052734FEAC2025FEA1C1CC0D111F4801FEC
:102C70000BD141EA00014FF000004FF0004CB6E7E5
:102C800011F4801F04BF01430020B4F1FD0C88BF84
:102C9000BCF5E06F3FF6AFAEB5EB030C04BFB6EB8F
:102CA000020C5FEA500C50F1000041EB045170BD82
:102CB0000EF0004E4EEA113114EB5C04C2BFD4EBAF
:102CC0000C0541EA045170BD41F480114FF0000E33
:102CD000013C90E645EA060E8DE60CEA135594EAAF
:102CE0000C0F08BF95EA0C0F3FF43BAF94EA0C0FB2
:102CF0000AD150EA01347FF434AF95EA0C0F7FF427
:102D000025AF104619462CE795EA0C0F06D152EA7A
:102D100003353FF4FDAE1046194622E750EA41065E
:102D200018BF52EA43067FF4C5AE50EA41047FF46F
:102D30000DAF52EA43057FF4EBAE12E74FF0FF3CD4
:102D400006E000BF4FF0010C02E000BF4FF0010CA5
:102D50004DF804CD4FEA410C7FEA6C5C4FEA430C1E
:102D600018BF7FEA6C5C1BD001B050EA410C0CBF6D
:102D700052EA430C91EA030F02BF90EA020F0020CF
:102D8000704710F1000F91EA030F58BF994208BF36
:102D900090422CBFD8176FEAE37040F001007047F3
:102DA0004FEA410C7FEA6C5C02D150EA013C07D14A
:102DB0004FEA430C7FEA6C5CD6D152EA033CD3D095
:102DC0005DF8040B704700BF8446104662468C468F
:102DD0001946634600E000BF01B5FFF7B7FF0028C2
:102DE00048BF10F1000F01BD4DF808EDFFF7F4FFEB
:102DF0000CBF012000205DF808FB00BF4DF808ED76
:102E0000FFF7EAFF34BF012000205DF808FB00BF98
:102E10004DF808EDFFF7E0FF94BF012000205DF8BA
:102E200008FB00BF4DF808EDFFF7CEFF94BF01206F
:102E300000205DF808FB00BF4DF808EDFFF7C4FF68
:102E400034BF012000205DF808FB00BF4FEA410CB1
:102E50007FEA6C5C02D150EA013C0AD14FEA430C94
:102E60007FEA6C5C02D152EA033C02D14FF00000D1
:102E700070474FF0010070470A22002100F0CABEDF
:102E8000014B1868704700BFE00BFF1F70B50F4E75
:102E90000F4D761BB61018BF002405D0013455F82D
:102EA000043B9847A642F9D10A4E0B4D761B04F01D
:102EB000EBFBB61018BF002406D0013455F8043BD4
:102EC0009847A642F9D170BD70BD00BF947600004E
:102ED000947600009C76000094760000D0F8EC0018
:102EE000704700BF024B0146186800F003B800BFEE
:102EF000E00BFF1F2DE9F04F01F10B05162D83B0FC
:102F0000064640F29F8035F0070500F1BF80A942D8
:102F100000F2BC8000F06EFBB5F5FC7FC0F09C8237
:102F20006B0A00F0BA80042B00F28381A80900F13B
:102F3000390E4FEA4E033830C44F07EB8303A3F139
:102F400008015C68A14207D1ACE0002A80F2AC80A5
:102F5000E468A14200F0A680636823F003035A1BD3
:102F60000F2AF2DDB9493C6901F1080E744500F001
:102F7000B381636823F003035A1B0F2A00F399817E
:102F8000002AC1F814E0C1F810E080F29E80B3F589
:102F9000007F80F06781DB0803F1010C01229B10A8
:102FA00002FA03F34A6851F83C80C4F8088001EB48
:102FB000CC091A43A9F10803E3604A6041F83C4098
:102FC000C8F80C40831001249C40944200F28A808F
:102FD000144206D120F003006400144200F1040002
:102FE000FAD007EBC009CC468046DCF80C108C45C3
:102FF00007D173E1002A80F28181C9688C4500F015
:103000006D814B6823F003035A1B0F2AF2DD0C4637
:10301000D1F80CC054F8088F4B1945F001054D60EC
:1030200042F00101C8F80CC03046CCF808807B6142
:103030003B61C3F80CE0C3F808E059609A5000F017
:10304000DBFA1FE0102921D800F0D4FA102506235E
:1030500002207E4F07EB8303A3F108025C689442D1
:1030600000F045816368E168A56823F00303234409
:1030700030465A68E96042F001028D605A6000F003
:10308000BBFA0834204603B0BDE8F08F00240C23BF
:103090002046336003B0BDE8F08F80234FF0400E30
:1030A0003F2049E770465DE72344E1685A68A56818
:1030B00042F00102E96030468D605A6000F09CFAEF
:1030C0000834204603B0BDE8F08F234430465A68E8
:1030D00042F001025A6000F08FFA0834204603B033
:1030E000BDE8F08FBC68636823F00308A84504D3EB
:1030F000C5EB08030F2B00F38C80554BDFF8609174
:103100001A68D9F8003001332A4404EB080A00F0A9
:10311000608102F580520F3222F47F6222F00F02AA
:1031200011463046019200F059FCB0F1FF3F834652
:10313000019A00F05881824500F2FC80454B1968E5
:10314000DA451144196000F05381D9F80000DFF826
:1031500010E101301BBFCAEB0B0A5144CEF800B09E
:1031600019601BF0070100F01781C1F10800C1F5DB
:103170008051834408315A44C2F30B02C2EB010967
:1031800049463046019300F029FC431C019B00F0A6
:103190003F81CBEB00024A4442F001021968C7F8B4
:1031A00008B04944BC42CBF804201960DFF8A49071
:1031B00016D0B8F10F0F40F2FD806268A8F10C0341
:1031C00023F00703E01802F001024FF0050E1A4346
:1031D0000F2B6260C0F804E0C0F808E000F21C8128
:1031E0001D4BBC681A68914288BF19601B4B1A6856
:1031F0009142626888BF196022F003029542A2EBF7
:10320000050301D80F2B04DC304600F0F5F900244B
:1032100038E7621943F0010345F001056560304667
:10322000BA60536000F0E8F90834204603B0BDE806
:10323000F08F142B71D9542B00F2A480280B00F1CD
:103240006F0E4FEA4E036E3076E600BF500DFF1F43
:10325000A415FF1FA815FF1FA015FF1F9C15FF1F1A
:103260005C11FF1F5A0A042A5ED9142A00F2B380A7
:1032700002F15C0149005B3207EB810C57F8211029
:10328000DFF8DC81ACF1080C8C4500F088804A68DE
:1032900022F00302934202D289688C45F7D1D1F81B
:1032A0000CC07A68C4F80CC0A160CCF80840CC60AF
:1032B00088E6631942F0010745F001056560304674
:1032C0004B610B61C3F80CE0C3F808E05F609A50F3
:1032D000083400F091F9D5E64A6873E608F1010870
:1032E00018F0030F0CF1080C7FF47FAE30E0DC68BF
:1032F000A34208BF02303FF435AEB3E60B440C46A0
:103300005A68C96854F8085F42F001025A603046B2
:10331000E9608D6000F070F9B4E603F15C0E03F132
:103320005B004FEA4E0307E69A0902F139014900B2
:103330003832A1E7BC424A4B3FF400AF9C68626858
:1033400022F003025AE759F80839994540F0828083
:1033500010F0030F00F1FF30F5D17B6823EA04037E
:103360007B6064009C423FF6BDAE002C3FF4BAAED9
:103370001C4240467FF435AE64001C4200F104005C
:10338000FAD02EE6B3F5AA7F18D8E80B00F1780E34
:103390004FEA4E037730CFE54FF48051EBE6012141
:1033A000D8F80430921001FA02F21A43C8F8042047
:1033B000614677E70123CBF8043025E740F2545209
:1033C000934220D8A80C00F17D0E4FEA4E037C30CA
:1033D000B2E51032A4E6542A26D81A0B02F16F0186
:1033E00049006E3248E7BC68626822F0030205E7D4
:1033F000CAF30B0000287FF4A8AE4244BB6842F039
:1034000001025A60ECE6FE234FF07F0E7E2093E52A
:1034100001224FF00009C1E604F10801304600F036
:10342000D7FCD9F80010DBE6B2F5AA7F05D8DA0B95
:1034300002F17801490077321EE740F254518A4286
:1034400005D89A0C02F17D0149007C3214E7FE2177
:103450007E2211E77B6884E7E808431C5B00F8E5FF
:10346000500DFF1F82B049B15AB16BB113780B6098
:103470001278101C18BF012002B0704701A9002A61
:10348000F3D1104602B070476FF00100F4E700BFBF
:103490008842F0B50DD98B1898420AD28118002ABB
:1034A00051D09A1A13F8014D01F8014D9342F9D108
:1034B000F0BD0F2A48D941EA00039B0746D100F12D
:1034C000100401F11003154653F8106C44F8106C09
:1034D00053F80C6C44F80C6C53F8086C44F8086C06
:1034E000103D53F8046C44F8046C0F2D03F11003E5
:1034F00004F11004E8D8A2F1100323F00F0302F046
:103500000F0E1033BEF1030F1944034421D91E1FBF
:103510000D467446043C55F8047B46F8047F032CA2
:10352000F8D8AEF1040424F0030404342344214405
:1035300002F0030262B1013B0A4411F8014B03F8A7
:10354000014F8A42F9D1F0BD0346F3E70346F2E7A3
:10355000F0BD7246EEE700BF70B4840746D0541E3B
:10356000002A41D0CDB2034602E0621EE4B3144605
:1035700003F8015B9A07F8D1032C2ED9CDB245EAA6
:1035800005250F2C45EA054519D903F110022646F9
:10359000103E0F2E42F8105C42F80C5C42F8085CBA
:1035A00042F8045C02F11002F2D8A4F1100222F0F9
:1035B0000F0204F00F041032032C13440DD91E46E1
:1035C0002246043A032A46F8045BFAD8221F22F066
:1035D00003020432134404F003042CB1C9B21C44A6
:1035E00003F8011BA342FBD170BC7047144603468D
:1035F000C2E700BF704700BF704700BF2DE9F04F22
:10360000174683B0002900F0C1800E46814607F1BD
:103610000B05FFF7EFFF56F804EC162D2EF0030410
:10362000A6F1080840D810221546AF4241D894426E
:1036300075DAC94B996808EB04008842416800F0CC
:10364000D98021F0010303445B68DB077DD51EF0C0
:10365000010F35D039464846FFF74CFC0746E0B12C
:1036600056F8043C23F001034344A0F108029A42B7
:1036700000F04481221F242A00F23181132A00F233
:103680000481034632461168196051685960926896
:103690009A603146484600F09BFB4846FFF7ACFF76
:1036A000384603B0BDE8F08F25F00705002D2A4607
:1036B000BBDA0C230020C9F8003003B0BDE8F08F5E
:1036C00056F8083CC3EB080ADAF8043023F0030C80
:1036D00004EB0C039342BDDB5746DAF80C1057F8A5
:1036E000080F221F242AC160886000F21781132A64
:1036F00040F212813168CAF808107168CAF80C10DB
:103700001B2A00F22B8108360AF110023168116081
:1037100071685160B16891603E461C46D046631B9B
:103720000F2B1DD8D8F8043003F001032343444481
:10373000C8F80430636843F0010363604846FFF74C
:103740005BFF304603B0BDE8F08F21F00301214458
:10375000914221DBC36882680C46D3609A60DEE741
:10376000D8F8042008EB050102F00102154343F0EC
:1037700001020B44C8F804504A605A6842F0010242
:1037800008315A60484600F023FBD7E7114603B0E2
:10379000BDE8F04FFFF7AEBB1EF0010F7FF45AAF4C
:1037A00056F8083CC3EB080ADAF8043023F0030C9F
:1037B00001EB0C0E96458BDBC36882685746D360DD
:1037C0009A6057F8081FDAF80C30CB60221F242AC1
:1037D000996000F29980132A62D93368CAF80830D8
:1037E0007368CAF80C301B2A00F2A08008360AF170
:1037F000100356E021F0030BA34405F110008345AC
:1038000059DA1EF0010F7FF425AF56F8081CC1EB02
:10381000080ADAF8041021F0030CE34458453FF796
:1038200057AF5746DAF80C1057F8080F221F242A12
:10383000C160886000F2B480132A40F2A58031682C
:10384000CAF808107168CAF80C101B2A00F2AF8081
:1038500008360AF110023168116071685160B16870
:1038600091600AEB0501C5EB0B0242F00102996081
:103870004A60DAF8043003F001031D434846CAF8F1
:103880000450FFF7B9FE38465CE73368036073689D
:1038900043601B2A27D800F1080306F10802F2E66C
:1038A0003B4632681A6072685A60B2689A603E4657
:1038B0007446D04633E708EB0501C5EB0B0B4BF024
:1038C000010299604A6056F8043C03F001031D436D
:1038D000484646F8045CFFF78FFE304632E7314633
:1038E000FFF7D6FDD5E6B3688360F368C360242A8A
:1038F00028D000F1100306F11002C4E650F8043C91
:1039000023F003031C440AE7314638467446D04688
:10391000FFF7BEFD3E4602E73A46F7E63146384637
:103920001C46D046FFF7B4FD3E46F8E6B368CAF839
:103930001030F368CAF81430242A1BD010360AF16C
:103940001803AEE7336903617369436106F1180236
:1039500000F1180397E600BF500DFF1FB168CAF8C9
:103960001010F168CAF81410242A0FD010360AF18A
:103970001802CBE63369CAF818307369CAF81C30EC
:1039800018360AF120038CE73A4664E73269CAF830
:1039900018207269CAF81C2018360AF12002B5E610
:1039A000314638460193FFF773FD019B59E7B16833
:1039B000CAF81010F168CAF81410242A03D010367F
:1039C0000AF1180247E73269CAF818207269CAF882
:1039D0001C2018360AF120023DE700BF38B5074C1D
:1039E0000023054608462360FCF7FAFE431C00D07E
:1039F00038BD2368002BFBD02B6038BDE415FF1FBA
:103A000090F800F06DE9024520F007016FF0000C1E
:103A100010F0070491F820F040F049804FF00004C6
:103A20006FF00700D1E9002391F840F000F10800A1
:103A300082FA4CF2A4FA8CF283FA4CF3A2FA8CF3D9
:103A40004BBBD1E9022382FA4CF200F10800A4FA40
:103A50008CF283FA4CF3A2FA8CF3E3B9D1E9042394
:103A600082FA4CF200F10800A4FA8CF283FA4CF3CB
:103A7000A2FA8CF37BB9D1E9062301F1200182FA85
:103A80004CF200F10800A4FA8CF283FA4CF3A2FA8B
:103A90008CF3002BC6D0002A04BF04301A4612BA99
:103AA000B2FA82F2FDE8024500EBD2007047D1E99C
:103AB000002304F00305C4F100004FEAC50514F02B
:103AC000040F91F840F00CFA05F562EA05021CBFFC
:103AD00063EA050362464FF00004A9E72DE9F84FB9
:103AE000DDF828900F46804616461D468B4600E0BE
:103AF000A3465C46484614F801ABFFF7EFF9504483
:103B0000417801F0080101F0FF0C0029F0D1524684
:103B10002D2A61D02B2A04BF9BF801200BF102044F
:103B2000002D43D0102D65D0A946BCF1000F0CBF6D
:103B30006FF0004A4FF0004A0021BAFBF9FE084638
:103B400009FB1EAA05E029D009FB0030012114F869
:103B5000012BA2F13003092B05D9A2F14103192B46
:103B60000AD8A2F137039D420EDD4A1CEFD08645EC
:103B7000E9D24FF0FF31EAE7A2F16103192B03D834
:103B8000A2F157039D42F0DC4B1C15D0BCF1000F95
:103B900010D14EB1E1B93760BDE8F88F9A45D3DA5C
:103BA00070464FF0FF31D2E7BDE8F88F302A1AD0C7
:103BB0000A25B9E74042ECE7BCF1000F4FF02203C1
:103BC0000CBF6FF000404FF00040C8F80030F6B175
:103BD000671E3760BDE8F88F0BF102049BF80120E7
:103BE0004FF0010C9CE7237803F0DF03582B08D03B
:103BF000082599E7302A97D1237803F0DF03582B63
:103C000092D14FF0100962784D4602348DE7BDE83D
:103C1000F88F00BF30B5084C084B25686C6B83B03B
:103C2000002C08BF1C46009413460A46014628464D
:103C3000FFF754FF03B030BDE00BFF1FE40BFF1F85
:103C4000F0B5ADF5057D04AD00930F4613464FF476
:103C5000007403AA29460394064600F013FD88B1B8
:103C6000044602463946039B304600F029F8AC4230
:103C7000039004D03046214600F0AAF803980DF5D1
:103C8000057DF0BD4FF0FF30F9E700BF10B4044CE4
:103C900013460A46014620685DF8044BFFF7D0BF83
:103CA000E00BFF1F21B1FF2A04D80A7001207047E2
:103CB000084670478A2303604FF0FF30704700BF0B
:103CC00070B50D46084C114606461A462846002394
:103CD0002360FCF79DFC431C00D070BD2368002BC3
:103CE000FBD0336070BD00BFE415FF1F024B13B162
:103CF000024800F005B87047000000000D3D0000CC
:103D0000002301461A46184600F0ECBC38B5074DB2
:103D1000074C2C1BA41005D0013C55F8043D9847D6
:103D2000002CF9D1BDE8384003F0B8BC0000000019
:103D300000000000F8B5234F0C460646FFF75AFC7A
:103D4000BB685D6825F00305291B01F6EF7121F4BE
:103D50007F6121F00F01A1F58054B4F5805F07DB8E
:103D600000213046FFF73AFEBB682B44984204D04E
:103D70003046FFF741FC0020F8BD61423046FFF7B6
:103D80002DFE01300DD0104BBA6819682D1B45F07F
:103D900001053046091B55601960FFF72DFC012015
:103DA000F8BD00213046FFF719FEBA68831A0F2BC1
:103DB000DEDD064C0449246843F00103001B536018
:103DC0000860D5E7500DFF1FA815FF1F5C11FF1FEE
:103DD000002945D02DE9F0410D468046FFF70AFC49
:103DE00055F8047C6A4927F00103A5F10804E2189C
:103DF0008E685068B24220F0030062D0FE07506027
:103E00000BD455F8087CE41B01F1080EA568754534
:103E10003B446FD0E768EF60BD6015186D68ED0733
:103E200042D543F001026260E350B3F5007F18D23F
:103E3000DB085A1C4D6851F83270A76001209B10B6
:103E400000FA03F301EBC2001D430838E0604D6047
:103E500041F83240FC604046BDE8F041FFF7CCBB82
:103E600070475A0A042A53D89A0902F139077F0089
:103E700002F1380501EB870051F827204449083842
:103E800090424DD0516821F003018B4202D29268DA
:103E90009042F7D1D068E060A2608460D460404670
:103EA000BDE8F041FFF7A8BB95683A4FBD42034417
:103EB0003FD0D068E86043F0010285606260E35063
:103EC000B3E7FF07034407D455F8082CA41A13449A
:103ED000A068E268C26090602F4A126843F0010057
:103EE000934260608C60B6D32C4B40461968FFF754
:103EF00021FFB0E711184968C90744D49168D26816
:103F0000CA60034443F0010091606060E350A2E79F
:103F1000142A17D802F15C077F0002F15B05A9E7BC
:103F2000AA104B68012505FA02F213434B600246C2
:103F3000B1E743F001024C610C61E560A56062608D
:103F4000E35088E7542A06D81A0B02F16F077F0066
:103F500002F16E058EE7B2F5AA7F06D8DA0B02F100
:103F600078077F0002F1770584E740F254508242DF
:103F700006D89A0C02F17D077F0002F17C0579E7F3
:103F8000FE277E2576E743F001026260E35062E798
:103F9000500DFF1F580DFF1F5811FF1FA415FF1FC5
:103FA000044A054B1268506B002808BF1846F030D1
:103FB000704700BFE00BFF1FE40BFF1FFFFFFFFF79
:103FC00001F0FF01102A2BDB10F0070F08D010F8CA
:103FD000013B013A8B422DD010F0070F42B3F6D1CE
:103FE000F0B441EA012141EA014122F007047FF0E7
:103FF00000070023F0E80256083C85EA010586EA3E
:10400000010685FA47F5A3FA87F586FA47F6A5FA79
:1040100087F68EB9EED1F0BC01F0FF0102F0070285
:1040200032B110F8013B013A83EA010313B1F8D130
:104030000020704701387047002D06BF3546033811
:10404000073815F0010F07D1013015F4807F02BF4A
:10405000013015F4C03F0130F0BC0138704700BF9B
:10406000C36C70B505460C464BB153F8240080B1C3
:10407000026843F8242000230361C36070BD21223D
:10408000042100F081FBE86403460028EDD1002004
:1040900070BD012101FA04F6721D2846920000F05D
:1040A00073FB0028F3D044608660E4E731B1C36C51
:1040B0004A6853F82200086043F82210704700BF96
:1040C000F0B50C6983B00D46064601F1140E0027C9
:1040D000DEF8000081B202FB01310B0C000C02FB88
:1040E000003389B2013701EB0341BC424EF8041B97
:1040F0004FEA1343ECDC3BB1AA68944207DA05EBC4
:104100008402013453612C61284603B0F0BD696814
:10411000019301313046FFF7A3FF2A69023205F10E
:104120000C01074692000C30FCF790FAF26C6968BB
:10413000019B52F82100286042F821503D46DEE7FD
:10414000030C1B04B3B90004102310F07F4F04BF0D
:104150000002083310F0704F04BF0001043310F068
:10416000404F04BF80000233002807DB420003D425
:10417000202070470023E8E7581C70471846704716
:10418000036813F0070207D0D90720D49A0720D478
:104190009B0803600220704799B209B91B0C1022DA
:1041A00013F0FF0F04BF1B0A0832190704BF1B09D5
:1041B0000432990704BF9B080232D90704D45B0874
:1041C00001D1202070470132036010467047002063
:1041D00070475B0803600120704700BF10B50C46B4
:1041E0000121FFF73DFF01224461026110BD00BFC4
:1041F0002DE9F04F0D691769BD4283B00C46164694
:1042000004DA2A4634463D460E461746A3686168DE
:1042100005EB07089845C8BF0131FFF721FF00F102
:10422000140C0CEB8809CC45009005D263460021A4
:1042300043F8041B9945FBD806F1140202EB870AE8
:1042400004F11403524503EB850E54D2CDF80490CB
:10425000994652F8043B1FFA83FBBBF1000F20D0B4
:1042600000204F466646054600E01E4657F8044BC0
:104270003068A1B283B20BFB0131240C000C4B1946
:104280000BFB040000EB134099B2334641EA0041B6
:10429000BE454FEA104543F8041BE6D8756052F856
:1042A000043C5FEA134B20D0DCF800306746184628
:1042B0004D46002100E037462C88000C0BFB040023
:1042C00001449CB23E4644EA014346F8043B786808
:1042D00055F8044B83B2240C0BFB043404EB11435C
:1042E000AE454FEA1341E6D87B6092450CF1040CD1
:1042F000AFD8DDF80490B8F1000F0BDD59F8043C9D
:10430000A9F104091BB105E059F8043D13B9B8F14E
:104310000108F9D10098C0F8108003B0BDE8F08F13
:1043200012F003032DE9F041144607462ED10E4644
:10433000A4101CD0BD6C95B3E3074FF0000806D461
:10434000641014D02868A8B10546E307F8D52A46BA
:1043500031463846FFF74CFFB6B17268FB6C64100B
:1043600053F82210316043F822600646EAD1304605
:10437000BDE8F0812A4629463846FFF739FF286014
:10438000C0F800800546E0E70646D9E75A1E0B4D07
:10439000002355F82220FFF793FE0646C8E70121C7
:1043A0003846FFF75DFE40F2712101220023416192
:1043B00002610546B8640360BEE700BF08760000EE
:1043C0002DE9F04791460A698B684FEA691404EBBE
:1043D000020808F101059D420E468246496804DD47
:1043E0005B009D4201F10101FADC5046FFF738FE07
:1043F000002C00F1140238DD02EB8403002142F8A6
:10440000041B9342FBD1346906F1140119F01F0912
:1044100001EB840E21D0C9F1200200240F6807FAB5
:1044200009FC4CEA04049C4643F8044B51F8044B45
:104430008E4524FA02F4F1D8CCF804400CB108F10E
:104440000205DAF84C307268013D53F8221005611C
:10445000316043F82260BDE8F087043B51F8042B3B
:1044600043F8042F8E45F9D8EBE71346CBE700BF9E
:1044700002690B69D21A13D19B001430143119440C
:1044800010B4034401E098420CD253F8044D51F8A3
:10449000042D9442F7D009D301205DF8044B7047F6
:1044A0001046704700205DF8044B70474FF0FF3016
:1044B000F3E700BF2DE9F8430B690F4611695B1A5A
:1044C000002B904617D1890007F1140208F114055A
:1044D0005318294401E09A425ED253F8046D51F812
:1044E000044DA642F7D060D23B46144647464FF0F3
:1044F0000109984606E05DDB07F1140502F114049A
:104500004FF000097968FFF7ABFDD8F810303E692D
:10451000C0F80C9004EB830CA64605EB860700F16F
:10452000140400235EF8041B55F8048B8AB213FAB6
:1045300088F3090C9A1AC1EB184303EB224392B299
:1045400042EA0342F44544F8042B4FEA2343E9D8F6
:10455000AF4217D9A446294651F804EB13FA8EF25C
:10456000131403EB1E4392B242EA03428F424CF80B
:10457000042B4FEA2343EFD8ED433D4425F00305D8
:1045800004352C44043C22B954F8043D013E002B70
:10459000FAD00661BDE8F8830021FFF761FD012232
:1045A000002302614361BDE8F8832C464FF0000907
:1045B0001546A7E73B4607F1140408F114054746E2
:1045C0004FF0010998469DE72DE9F04357EC106B39
:1045D00083B0884601213C46C7F30A551746FFF7CA
:1045E0003FFDC4F3130481460DB144F480140194DB
:1045F0001EB302A840F8086DFFF7C2FD002834D1B1
:104600009DE80C00C9F81420002B0CBF01210221E9
:10461000C9F81830C9F81010DDB909EB8103A0F210
:104620003240C8F800001869FFF78AFDC0EB41105E
:104630003860484603B0BDE8F08301A8FFF7A0FD4D
:10464000019BC9F8143001212030C9F81010002D49
:10465000E3D0A5F233450544C0F13500C8F8005059
:104660003860484603B0BDE8F0839DE80C00C0F117
:10467000200103FA01F10A43C3400193C9F8142051
:10468000C2E700BF70B515469AB0146809B1002C96
:104690001AD100244FF42272ADF80C200094049437
:1046A0001A464FF6FF761E9B029469460594ADF8B4
:1046B0000E6001F049F8002811DB009B2860002201
:1046C0001A7004981AB070BD4FF4C1620091049141
:1046D000ADF80C20E4DA8B2303600020F2E7002021
:1046E000F0E700BF2DE9F047254C2568D5F8484193
:1046F0000646884692469946C4B360681F2817DC70
:10470000431C76B104EB80050122C5F888A0D4F8DB
:10471000881182401143022EC4F88811C5F808910F
:104720001ED00230636044F820800020BDE8F0878E
:10473000144B03B34FF4C870FEF7D4FB0446D0B15A
:10474000D5F84831002780E88800C5F84841384648
:104750000123C4F88871C4F88C71002EE1D0D1E730
:10476000D4F88C110A43C4F88C21DAE705F5A67455
:10477000C5F84841C1E74FF0FF30BDE8F08700BF02
:1047800004740000E52E000010B502FB01F1FEF7F5
:10479000B1FB0446D8B150F8042C22F00302043ACD
:1047A000242A18D8132A14D900231B2A0360436033
:1047B00016D9242A8360C36011BF00F1100203617F
:1047C000436100F118020023136053609360204698
:1047D00010BD0246F7E70021FEF7BEFE204610BDE1
:1047E00000F10802EFE700BF02690B69934200F392
:1047F0008D802DE9F04F03F1FF3801F1140700F12E
:10480000140B57F828205BF828304FEA880483B04F
:104810000132B3FBF2F90BEB0403009407EB040A3B
:104820000193B9F1000F39D00025BC46DE462B4676
:104830005CF8046BDEF80020B4B209FB0455360CBA
:104840002C0C09FB0644ADB25B1BA6B213FA82F333
:10485000C6EB124606EB23469BB243EA0643E2450B
:104860004EF8043B4FEA14454FEA2643E0D2009B42
:104870005BF8033093B9019C231F9B450CD254F87D
:10488000043C4BB9A4F1080302E01A68043B1AB9CE
:104890009B4508F1FF38F8D3C0F810800446FFF7B5
:1048A000E7FD00282EDB09F101095D46002357F8DA
:1048B000041B28688AB29A1A090C12FA80F2C1EB1A
:1048C000104303EB224391B241EA0341BA4545F854
:1048D000041B4FEA2343EAD25BF828200BEB880342
:1048E00082B91A1F93450BD253F8042C42B9083BE6
:1048F00002E01A68043B1AB99B4508F1FF38F8D367
:10490000C4F81080484603B0BDE8F08F002070471F
:104910002DE9F04F57EC106B9BB0046C249D009177
:1049200081460592039310EE10AABB4654B1426C27
:10493000626001239340A3602146FFF7B7FB002389
:10494000C9F84030BBF1000F5C4634DB00232B601C
:10495000A14B1A462340934216D000220023504612
:104960005946FEF741FA56465F46804648B3039AD9
:1049700001231360259B002B00F0BE809748186030
:1049800001381BB0BDE8F08F039A42F20F73136039
:10499000BAF1000F00F09A809148259B002BF0D0CF
:1049A000C378002B00F0AA8000F10803259A136059
:1049B0001BB0BDE8F08F01232BF000442B60A34611
:1049C000C6E718AA19A947EC106B4846FFF7FCFD8B
:1049D000250D0A9040F08380189D199E2E4406F202
:1049E0003243202B40F38882C3F1400306F2124089
:1049F0009C402AFA00F02043FDF718FF0123741EA3
:104A0000A1F1F8710F930022764BFDF7D1FD6CA355
:104A1000D3E90023FDF780FF6BA3D3E90023FDF763
:104A2000C9FD064620460F46FDF710FF68A3D3E9EF
:104A30000023FDF771FF02460B4630463946FDF76D
:104A4000B9FD06460F4602F071FA002204900023D9
:104A500030463946FEF7D2F9002840F02882049EFD
:104A6000162E00F22182604B03EBC603D3E900014E
:104A700052465B46FEF7E0F9002800F04282731EC2
:104A8000049300230D932D1BB5F1010800F12A8238
:104A900000230793049B002BC0F21B8298440C93C5
:104AA00000230693009B092B2AD8052B40F344864C
:104AB000043B00930026009B023B032B00F223865D
:104AC000DFE813F02B03240236035004444B474A1B
:104AD000C4F31300002814BF184610465DE7CBF35B
:104AE000130343F07F51A5F2FF345046CDF83C80CC
:104AF00041F44011189D86E73D4842E7C31C55E745
:104B00000021C9F8441048460C460091FFF7A8FA66
:104B10004FF0FF3308930E9301230990C9F840002A
:104B200005940B93199B002BC0F2D080049A0E2A97
:104B300000F3CC802C4B03EBC20393ED007B059B71
:104B4000002B8DED007BC0F2FE8256465F46DDE90C
:104B500000AB304652465B463946FEF707F802F096
:104B6000E5F90446FDF772FE52465B46FDF7D4FEBA
:104B70000B46024639463046FDF71AFD099D04F101
:104B800030032B70089B012B06460F4605F10105EB
:104B900061D00022174BFDF7BFFE0022002306461E
:104BA0000F46FEF721F900287DD1CDF81490DDF8ED
:104BB00020A0DDF824B0DDE9008928E0AFF3008013
:104BC00061436F63A787D23FB3C8608B288AC63F13
:104BD000FB799F501344D33F0000F07F25760000FF
:104BE000207600000000F83F1875000014760000E1
:104BF0002476000000002440FDF78EFE00220023F2
:104C000006460F46FEF7F0F8002840F0AE83424615
:104C10004B4630463946FDF7A9FF02F087F90446B6
:104C2000FDF714FE42464B46FDF776FE02460B4664
:104C300030463946FDF7BCFC04F1300E05F801EBB7
:104C4000CBEB050ED64506460F464FF00002AE4BA5
:104C5000D2D1DDF8149032463B4630463946FDF756
:104C6000A9FC06460F4602460B46DDE90001FEF7A9
:104C7000C5F840B932463B46DDE90001FEF7B4F81D
:104C800088B1E3070FD515F8014C099A6B1E04E0B3
:104C90009A4200F0FC8313F8014D392C03F1010511
:104CA000F6D001341C700A994846FFF7FFF900223C
:104CB000049B2A70039A01331360259B002B00F09C
:104CC0009B8309981D601BB0BDE8F08F0B9A002AEA
:104CD00000F00E81009A012A40F35782089B069A41
:104CE0005F1EBA42C0F28B83D71B089B002BC0F219
:104CF0008084079D089B079A01211A444846079221
:104D00009844FFF76BFA064665B1B8F1000F09DD6C
:104D10004545079A2B46A8BF4346D21A0792ED1A7B
:104D2000C3EB0808069B002B40F3F5820B9A002A80
:104D300000F00282002F00F0FF8131463A464846DB
:104D4000FFF7EEFA0A9A014606464846FFF750FA80
:104D50000A9904464846FFF7A9F9069BDB1B069310
:104D600040F0E98101214846FFF738FA0C9B069094
:104D7000002B00F0158201461A464846FFF7D0FA8C
:104D8000009B0690012B40F3F3820027069A1369DB
:104D900002EB83031869FFF7D3F9C0F12000404408
:104DA00010F01F0000F0FA81C0F12003042B40F343
:104DB000BD84C0F11C00079B034407930544804455
:104DC000079B002B05DD21461A464846FFF7F8FAF7
:104DD0000446B8F1000F05DD424606994846FFF744
:104DE000EFFA06900D9B002B40F07A82089B002B77
:104DF00040F393820B9B002B40F0F481DDF824B04C
:104E0000089FDDF818805D4602E0FFF759F9044677
:104E100041462046FFF7E8FC00F1300A05F801ABF7
:104E2000CBEB0503BB424FF00A024FF000032146D3
:104E30004846EADB099B089A012AACBF9B1801335C
:104E40001D464FF0000B214601224846FFF7B8FAF5
:104E500006990A90FFF70CFB002840F3058315F82C
:104E6000012C09996B1E04E08B4200F0748213F848
:104E7000012D392A03F10105F6D001321A70069985
:104E80004846FFF713F9002E3FF40DAFBBF1000FBA
:104E900005D0B34503D059464846FFF707F93146D8
:104EA0004846FFF703F9FEE601230D93EBE5DDF835
:104EB00010804046FDF7CAFC02460B463046394694
:104EC000FDF792FF00287FF4CAAD08F1FF33049389
:104ED000C5E5079A049BD21A5B420693002307920A
:104EE0000C93DFE5C8F1000307934FF00008D1E50C
:104EF000069F079D0B9E07E7C3F120040AFA04F002
:104F00007AE50D90BFE500BF0000244000230B931D
:104F1000049B059A13440E930133002B089340F32E
:104F20007D82089C25460021172DC9F844100BD915
:104F3000012204235B0003F11400A842114602F190
:104F40000102F7D9C9F844104846FFF789F80E2C3A
:104F50000990C9F840003FF6E5AD002E3FF4E2AD00
:104F600004990029CDE910AB40F39A82904B01F0EF
:104F70000F020E1103EBC203F006D3E9004540F126
:104F800046828C4B50465946D3E90823FDF7EEFD87
:104F9000CDE9120106F00F064FF0030A86B1854FE6
:104FA000F10709D520462946D7E90023FDF7B4FCCF
:104FB0000AF1010A04460D46761007F10807EFD101
:104FC00022462B46DDE91201FDF7D0FD06460F46CD
:104FD0000D9B43B10022784B30463946FDF70EFF5A
:104FE000002840F01A835046FDF730FC32463B461D
:104FF000FDF792FC714B0022FDF7DCFA089B04469A
:10500000A1F15075002B00F0DB81049B1693089BE7
:1050100012930B9B002B00F09482129A644B684908
:1050200003EBC20353E902230020FDF79FFD224654
:105030002B46FDF7BDFA82468B463046394601F0D5
:1050400075FF0446FDF702FC02460B463046394622
:10505000FDF7AEFA3034099DE4B206460F462C70D7
:1050600002460B46504659460135FDF7E5FE00283D
:1050700050D132463B4600204F49FDF799FA02468F
:105080000B4650465946FDF7D7FE002840F00883EE
:10509000129A012A40F3F781129B099ACDF84880B1
:1050A000134498460DE000204349FDF781FA52462B
:1050B0005B46FDF7A3FE002840F0F282454500F074
:1050C000E0815046594600223E4BFDF725FC002268
:1050D0003C4B82468B4630463946FDF71DFC0F4659
:1050E000064601F023FF0446FDF7B0FB02460B46DF
:1050F00030463946FDF75CFA3034E4B252465B463E
:1051000005F8014B06460F46FDF778FE32463B4652
:105110000028C8D0169B0493C5E500230B93059B7C
:10512000002B40F380811D461C460E930893FAE63F
:1051300001230B93F3E70A94069A0A994846FFF76E
:10514000EFF804460EE6089B002B3FF7FEAC40F05C
:105150004F8100221C4BDDE90001FDF7DDFB5B46C2
:105160005246FDF75FFE089B06931E46002800F09E
:10517000EA80059B099DDB43049306994846FEF7A8
:1051800095FF002E3FF48FAD89E60F9A002A00F0BC
:10519000388203F23343069F079DACE51C200AE6E4
:1051A000009B012B40F380820C9F0120F7E500BF9C
:1051B00018750000E07500000000F03F00001C4082
:1051C0000000E03F0000244000001440314600236E
:1051D0000A224846FEF774FF0E9B002B064640F35A
:1051E0008D820893002D05DD31462A464846FFF79B
:1051F000E7F80646002F40F07C81B046089B099AEC
:10520000013BD31808930AF001030A931746DDF80F
:1052100018B020465946FFF7E7FA314605462046C2
:10522000FFF726F94246594682464846FFF742F9BB
:10523000C268834605F13003002A49D10146204661
:105240000793FFF715F9594605904846FEF72EFFDC
:10525000059A079B2AB9009919B90A99002900F003
:105260003582BAF1000FC0F2E38005D1009919B977
:105270000A99002900F0DC80002A00F34E81089A88
:105280003B7007F1010A9742554600F052812146D2
:1052900000230A224846FEF713FF464504463146DE
:1052A0004FF000034FF00A0248460BD0FEF708FF0C
:1052B0004146064600230A224846FEF701FF5746AC
:1052C0008046A4E7FEF7FCFE5746064680469EE76A
:1052D000014648460593FEF7E9FE0122059BC0E71B
:1052E00006992046FFF7C4F80028BFF67FAD214697
:1052F000049C0023013C0A2248460494FEF7E0FE89
:105300000B9B0446002B7FF461AF0E9B002B40F3F8
:10531000ED81089372E50A9C24E5009B022B7FF740
:1053200069AD089B002B40F09D81069905224846F7
:10533000FEF7C6FE014606902046FFF799F80028C2
:105340000A947FF716AF049A099931230132049227
:105350000B704D1C11E7049A01320492099A312313
:1053600013708CE501230B93D2E5DDF814909AE4D9
:10537000BAF1000F7FF409ADCBF31303002B40F01B
:105380003E812BF000473F0D3F052FB1079B0133B6
:10539000079308F1010801270C9B0120002B3FF423
:1053A000FEACF3E45046FDF751FA32463B46FDF7BA
:1053B000B3FA0022BF4BFDF7FDF80446A1F150758A
:1053C000304639460022BC4BFDF7F2F822462B4608
:1053D00006460F46FDF730FD002840F0AE8022461D
:1053E00005F1004330463946FDF708FD00284AD054
:1053F000002306931E46BCE60998FFF7C2BA069B37
:105400000C9A0697FB1A1A440C9200276DE49DED46
:10541000107B4FF0020A8DED127BBFE51C46002188
:10542000C9F8441090E501240E9408940594F6E719
:10543000002A9A4611DD214601224846FEF7C0FFA8
:1054400006990446FFF714F8002840F34881BAF1A2
:10545000390F00F0098105F1310AB34687F800A041
:105460007D1C46460A940AE504D11AF0010F01D0CA
:10547000F5E4154615F8013C302B05F1FF32F8D064
:10548000FDE4DDF84880DDE910ABFFF74BBB09997F
:1054900030220A70049A15F8014C0132049200E49B
:1054A000049B5C42002C00F0B380844B04F00F029C
:1054B00003EBC203D3E90023DDE91001FDF72CFA69
:1054C000241106460F4600F016817D4D4FF0020A6A
:1054D000E20709D530463946D5E90023FDF71CFA25
:1054E0000AF1010A06460F46641005F10805EFD1DE
:1054F0006EE571684846FEF7B3FD33699A1C0546B0
:10550000920006F10C010C30FBF7A0F829460122AD
:105510004846FEF755FF804670E6392B00F0A48020
:1055200003F1010AB34687F800A07D1C46460A94A1
:10553000A5E4B3469A46464685E4002306931E46F4
:1055400001E7129B5D495A1E01EBC2012B461792DF
:10555000D1E900012246FDF7DFF9CDE91401394612
:10556000304601F0E3FC0446FDF770F90B460246B5
:1055700039463046FDF71CF8129B0F460999303426
:10558000012B06460C7001F1010520D0129B099AEF
:1055900013449A46AB4600224A4B30463946FDF743
:1055A000BBF90F46064601F0C1FC0446FDF74EF973
:1055B000303402460B4630463946FCF7F9FF0BF80B
:1055C000014BDA4506460F46E5D1179B1D440022E4
:1055D0003D4BDDE91401FCF7EDFF32463B46FDF79C
:1055E0000DFC002848D0169B049315F8014CFFF7DA
:1055F0004CBB079B089A9D1A0023FFF77CBB002732
:10560000CAE6189B069F079DC3F13603FFF773BBDD
:10561000DDE910674FF0020ADAE4089B002B3FF443
:10562000C1AE0E9B002B7FF72EAF0022254B3046DC
:105630003946FDF771F906460F460AF10100FDF7FC
:1056400005F932463B46FDF767F90022194BFCF796
:10565000B1FF049A0E9B1293013A0446A1F15075D2
:105660001692D6E40A9484E53922B3460A94464653
:105670003A707D1CFFF7F5BBDDE9142300201249C9
:10568000FCF796FF32463B46FDF7D6FB08B9FAE633
:10569000154615F8013C302B05F1FF32F8D039E5FD
:1056A000169B0493FFF7F1BABAF1000F7FF47CADBB
:1056B00062E600BF00001C400000144018750000A6
:1056C000E0750000000024400000E03F392BD34685
:1056D0009A46C9D0BBF1000F3FF7BDAEBDE67FF4DF
:1056E000BCAE1AF0010F3FF4B8AEB0E6009B022B3F
:1056F00025DC0E9B0DE64FF0020A69E4009B022BAD
:105700001DDC0E9B6DE50024C9F844402146484647
:10571000FEF7A6FC4FF0FF3308930E930123099088
:105720000594C9F840000B93FFF7FCB93FF448AB70
:10573000C0F13C00FFF73FBB0126FFF7BCB90E9B51
:105740000893EEE5FFFFFFFF2DE9F04FC1B00C46D7
:10575000059115460A930690FEF722FC0368139301
:105760001846FEF74DF9A38912901E0603D523694A
:10577000002B01F031819FEDA67B00238DED107B86
:105780000E932593249315930793DFF890A230ABE3
:1057900023939946A84698F800304446EBB1252B50
:1057A00002D11AE0252B03D014F8013F002BF9D1C8
:1057B000C8EB04058DB1249B259AC9F800800133FC
:1057C0002A44072BC9F804502592249300F3A6809D
:1057D00009F10809079B2B4407932378002B00F05D
:1057E000A68000231A468DF86F301946089303935C
:1057F0004FF0FF3B637804F101085D4608F10108B2
:10580000A3F12000582800F23484DFE810F0A00350
:1058100032043204A8033204320432043204320463
:105820003204AF03BD0332045D00E200320409011B
:1058300010011001100110011001100110011001E0
:1058400010013204320432043204320432043204CD
:105850003204320432042001860232048602320409
:10586000320432043204D40232043204E502320437
:1058700032043204320432040F03320432043D0392
:105880003204320432043204320432043204320468
:10589000320432047E039103860286028602990353
:1058A000910332043204070432041204A30064009A
:1058B000C2033204C9033204EA0332043204F2039D
:1058C00008980A9340420890039B43F00403039313
:1058D00098F8003092E70A98AB46002104688DF8EA
:1058E0006F10071D0398302378228B458DF8703098
:1058F0004FF000058DF8712040F00203C0F2D6830E
:1059000020F0800343F00203039354EA05030A974F
:1059100000F0A2830F460D923F48E6E223AA0599C4
:10592000069801F083FA48B90DF1C00952E7259BAA
:1059300023B10698059923AA01F078FA059B9B8963
:1059400013F0400F079B18BF4FF0FF33184641B0CC
:10595000BDE8F08F0D93AB46002A41F03382039AE5
:1059600012F0200300F046820A9F073727F0070352
:10597000002703F10801BB450A91D3E900458DF8E2
:105980006F70C0F2628722F08003039354EA05032C
:1059900000F0848330AEE20842EA4572E90804F080
:1059A00007030D461446303354EA050206F8013D5C
:1059B000F1D1039AD10740F18F80302B00F08C8019
:1059C0003022731E06F8012C30AAD21A09921E4604
:1059D00085E098F800302A2B08F1010401F0E481F9
:1059E000A3F13000092898BF002501F2868114F840
:1059F000013B05EB850500EB4505A3F130000928C7
:105A0000F5D945EAE575A046FAE600BFAFF3008098
:105A100000000000000000005C7600002876000016
:105A2000039B43F08003039398F80030E6E6A3F16C
:105A3000300000231C4618F8013B04EB840400EB03
:105A40004404A3F130000928F5D90894D8E60D9351
:105A5000AB46002A41F0C481039B43F0100303933B
:105A6000039B9C0640F137850A9F073727F00707FD
:105A7000D7E9002307F108010A9114461D46002AC0
:105A800073F10003C0F26285BBF1000F9DF86F70E7
:105A9000C0F23F85039B23F08003039354EA050380
:105AA00000F0E881002D08BF0A2CC0F0E88130AE7C
:105AB000204629460A22002301F060FA303206F817
:105AC000012D2046294600230A2201F057FA0446F8
:105AD0000D4654EA0503EBD130AB9B1B0993099BA0
